:020000040800F2
:10000000500D0020B9010008C1010008C30100081B
:1000100000000000000000000000000000000000E0
:10002000000000000000000000000000C501000802
:100030000000000000000000C7010008B125000812
:10004000CB010008CB010008CB010008CB01000860
:10005000CB010008CB010008CB010008251E0008D9
:1000600000000000CB010008CB010008CB01000814
:10007000CB010008CB010008CB010008F9260008DD
:10008000CB0100080000000000000000CB010008C8
:1000900000000000CB010008CB010008CB010008E4
:1000A00000000000CB010008000000005D270008F0
:1000B00000F002F800F055F80CA030C808382418F9
:1000C0002D18A246671EAB4654465D46AC4201D190
:1000D00000F047F87E460F3E0FCCB646012633426D
:1000E00000D0FB1AA246AB46334318473048000005
:1000F00050480000103A02D378C878C1FAD85207A5
:1001000001D330C830C101D504680C6070470000CD
:100110000023002400250026103A01D378C1FBD823
:10012000520700D330C100D50B60704710B5662967
:1001300002D103F08DFD10BD642902D100F096F8C4
:1001400010BD002010BD1FB501F022FA04000020F0
:10015000002103F00FFDE06000F06CFA1FBD10B548
:1001600010BD01F0CBFD1146FFF7EDFF03F076F96E
:1001700001F0E3FD03B4FFF7F2FF03BC01F02AFE38
:1001800070B505460C46164602E00FCC0FC5103E72
:10019000102EFAD2082E02D303CC03C5083E042E3B
:1001A00007D301CC01C5361F03E021782970641CF8
:1001B0006D1C761EF9D270BD07488047074800477E
:1001C000FEE7FEE7FEE7FEE7FEE7FEE70448054937
:1001D000054A064B704700009D260008B100000844
:1001E00050070020500D0020500900205009002029
:1001F0000FB41CB5084B06AA7B44694600900598CD
:1002000001F099F904460020694601F0A7F920465B
:100210001CBC08BC04B018476113000070B504464C
:1002200085690068C10601D5302600E02026C00798
:1002300007D070BD62683046A1689047206A401CB4
:1002400020626D1EF6D570BD70B5044685690078D4
:10025000C00707D170BD6268A16820209047206A5E
:10026000401C20626D1EF6D570BD0000F7B500255C
:1002700075291068009914A611D0C046C046002800
:1002800002DA404211A608E0009909688A0701D500
:100290000FA602E0490704D50EA6012501E0C046DD
:1002A000C046009F0024243704E001F05CF930319F
:1002B0003955641C0028F8D12B4632462146009857
:1002C00000F0CFFEFEBD0000000000002D00000089
:1002D0002B00000020000000F3B50446002081B090
:1002E00020622046E168884700287DD0252802D07A
:1002F0006268A16883E0454F00257F442046E1689D
:1003000088472028064608DB312E06D2B819203847
:100310000078002801D00543F0E7A80701D50420A4
:1003200085430020E0610746A0612A2E0AD03046AE
:1003300003F002F8002827D0B8000019303E0090E2
:10034000866119E00298BA00121902C89161029000
:100350002046E1688847012F064617D1E06900284A
:100360001FDA202085431CE000980A218069484359
:1003700000998019303888612046E1688847064630
:1003800002F0DAFF0028EFD1012F0AD02E2E08D17B
:100390002046E16888470646202005437F1C022F3F
:1003A000C3DBA069002803DA4042A06101200543B5
:1003B000E80701D010208543002E24D03046413874
:1003C000192803D80120C0020543203620462560A5
:1003D0003146029A1546FFF7A9FE00280CD00128E5
:1003E00007D0ED1DE80800E00DE0C00008300290E5
:1003F00077E72D1D029574E762683046A168904743
:10040000206A401C6CE7206AFEBD0000B644000074
:10041000F8B5042A2CD3830712D00B78491C03703B
:10042000401C521E83070BD00B78491C0370401CE4
:10043000521E830704D00B78491C0370401C521EC7
:100440008B079B0F05D0C91ADF002023DE1B08C9CC
:100450000AE0FFF795FEF8BD1D4608C9FD401C46A1
:10046000B4402C4310C0121F042AF5D2F308C91A55
:10047000521EF0D40B78491C0370401C521EEAD463
:100480000B78491C0370401C012AE4D409780170E0
:10049000F8BD01E004C0091F0429FBD28B0701D578
:1004A0000280801CC90700D00270704700290BD061
:1004B000C30702D00270401C491E022904D38307DF
:1004C00002D50280801C891EE3E70022EEE70022AD
:1004D000DFE7002203098B422CD3030A8B4211D39E
:1004E00000239C464EE003460B433CD400224308C5
:1004F0008B4231D303098B421CD3030A8B4201D3B5
:1005000094463FE0C3098B4201D3CB01C01A52414C
:1005100083098B4201D38B01C01A524143098B429C
:1005200001D34B01C01A524103098B4201D30B0185
:10053000C01A5241C3088B4201D3CB00C01A5241AA
:1005400083088B4201D38B00C01A524143088B426F
:1005500001D34B00C01A5241411A00D20146524108
:10056000104670475DE0CA0F00D04942031000D327
:100570004042534000229C4603098B422DD3030A7C
:100580008B4212D3FC22890112BA030A8B420CD38C
:10059000890192118B4208D3890192118B4204D3B5
:1005A00089013AD0921100E08909C3098B4201D335
:1005B000CB01C01A524183098B4201D38B01C01A6F
:1005C000524143098B4201D34B01C01A52410309E6
:1005D0008B4201D30B01C01A5241C3088B4201D395
:1005E000CB00C01A524183088B4201D38B00C01A42
:1005F0005241D9D243088B4201D34B00C01A524119
:10060000411A00D20146634652415B10104601D3A5
:100610004042002B00D54942704763465B1000D32F
:10062000404201B50020C046C04602BD7047704739
:100630007047000070B5064C7C44064D7D4403E0D5
:10064000206800198047241DAC42F9D170BD00001C
:100650001C4300001C430000F0B50C46871A9C4167
:100660000D46861A9D4103D2C01BA141D219634198
:100670000D0D1F0DC94EEC1BAE435CD07F057F0DE9
:100680000026002F51D02D05AC46A943DD020123E1
:10069000ED0A1B051D4320231B1B24D41746E740EE
:1006A000381871412F46E740CC199D402818314633
:1006B00061410C0D27D161449A4013D50023401CA1
:1006C000594152000ED14008400001224B00520512
:1006D000D34207D305204007C14201D5B04900E00D
:1006E000B0493046F0BD6B00002A00D001229A18B4
:1006F0001F23203C1B1B01D5002302E0E5402818E6
:1007000071410C0DD7D0012424050919C407CD0768
:1007100040084908E40F28436144002CD5D0002448
:10072000401C61419A40D0D1CDE76A05520DD9D124
:10073000C90FC907D5E79C4D4E00002801D0012400
:1007400000E0002434195F00002A01D0012600E0F7
:100750000026BE19954FAC420CD8AE420AD8B4421E
:1007600006D001256D05EC42BCD010461946F0BDFF
:100770009942FCD000203946F0BDF0B51FB40C46BC
:100780000F46811A9F412546861A9D4106D20125B2
:10079000ED076F40401ABC4152187B41210D1E0DE0
:1007A0008D1BAC467D4D8D437ED075056D0D7CD087
:1007B0000D05AE46AC431B031B0B794D52429D41C8
:1007C000202366469B1B14D31746F7403818002693
:1007D0000090744160462F460741E41900989D40FF
:1007E0002818664116D4714671189A4025D5012300
:1007F00020E093182A466A415200002B00D0521C78
:100800001E23203E9B1B002B61DD3541EE1728186F
:100810006641E8D5001876415B1C9A4000D3401C25
:100820004B05F3181524E34010D3002B52D071462A
:100830007118D30FC01802D3491C05B0F0BD0123B5
:10084000DB079A42F9D140084000F6E70122520541
:10085000B21801D1002853D00123CC0ADB029943FE
:10086000891E002A08D1020C03D0020C00041039A2
:1008700002E00246002020390023550B05D1120268
:100880000823550B01D152010D23550C01D1120142
:100890001B1DD50C01D192009B1C150D01D15200DE
:1008A0005B1C2025EE1A01E02CE022E00546F54015
:1008B00015439840CA1AE10769181305C918002A98
:1008C000BBDA032040070818C10FC9070FE07146C3
:1008D0006118B2E7F10740080843711071444A00FB
:1008E0000CD001235B059A42A7D2C90FC90700208B
:1008F000A3E74905490D26D1002001E00028F4D1E5
:1009000000219AE7284D6600002801D0012100E06F
:10091000002171185F00002A01D0012600E00026A6
:10092000BE19224FA94210D8AE420ED8B14208D00B
:1009300001256D05E94206D01946A802414010463E
:100940007BE79C4201D0214677E70020394674E7D7
:1009500010B50C465C4005D50124E4076340FFF761
:100960000CFF10BDFFF778FE10BD30B40C465C40A4
:1009700004D50124E407634030BC6DE630BCFCE6DE
:1009800070B50124E40761400D465D4002D4FFF7D5
:1009900063FE70BD6340FFF7F0FE70BDFF0700000F
:1009A0000000F0FF0000F07F0000E0FF0000F87F93
:1009B000F0B5F94D0C091E092C402E402F468BB086
:1009C000A7437DD0B543FCD0002E7AD0002CFCD0BC
:1009D0000D465D40ED0F2543AC1BFF25AD046419AA
:1009E0000894C502440DC9022143500DDC020443A2
:1009F0000120C00701430443D2020191200C110CD5
:100A000000958C46010423468B430A9161460904F4
:100A1000E24D8A430991010A7D44491980390978D8
:100A200005464D4301266D18F605751B6943C90C33
:100A3000640B891C4C436418B5012C1B250C2E0437
:100A4000B4434C434D43210C691889090591009D1D
:100A5000E90701D00121C90704912C4601996708D3
:100A6000CD072F434C08059DE10B4D432D0C294626
:100A70006646754302950D4645432E46029D7D1BF5
:100A8000B44100950D465D4301942C0C2F040D4696
:100A90005543AE462D0C3D43029503947546049C88
:100AA0002D04641B049406D2029C039D641C002642
:100AB00075410395029401AC70CC009F7D1B01E051
:100AC0003EE162E1B4410904009507910194059962
:100AD000A4086143090C0C464443650BE7040C462B
:100AE00066467443A646640B3C43039502947446E1
:100AF000049DE4042C1B049406D2029C039D641CF8
:100B0000002675410395029401AC70CC009F7D1BBB
:100B1000B44101940C465C430095650FE7000C4618
:100B20005443A646640F3C43039502947446049DC7
:100B3000E4002C1B049406D2029C039D641C002636
:100B400075410395029401AC70CC009F7D1BB441AC
:100B5000AE09AF06049DC900AD092F43049DA4064C
:100B6000AD060495079D344369180791059DE10B77
:100B70004D432D0C29466646754302950D46454367
:100B80002E46029D7D1BB44100950D465D430194A8
:100B90002C0C2F040D465543AE462D0C3D430295BB
:100BA00003947546049C2D04641B049406D2029C95
:100BB000039D641C002675410395029401AC70CC22
:100BC000009F7D1BB44101948C050694079C890A03
:100BD000611800950791019C0599A4086143090CCF
:100BE0000D464543680BEF040D46644665436C0BA8
:100BF0003C43049FED047D1BAC4602D20025641CDF
:100C00006841009E019D371B854108465843019568
:100C10000C46460FC5005443600F28436546E40068
:100C20002C1B02D20025401C6E41019D3F1AB5418C
:100C30002846BD09800628438446A009BF064E0207
:100C40000699A40676180743079D002068410A9973
:100C5000079019430020099B00906046FF19134339
:100C60004041E20F64003A43A4460446D71A8C413F
:100C7000A04203D90120009020463A46C70F94189D
:100C800040416246D20F2243644664000494009CB3
:100C9000BE466400D71AA446044602978C417746A4
:100CA000002F01D1A04204D96046401C8446029A1C
:100CB0002046C40FA64694184041049A0546D20F18
:100CC000224364466400D31A8D417146002901D144
:100CD000A84202D928461A46641C10430122002863
:100CE00000D0164361020020079B891904465C412D
:100CF0000223002C02DB491813466441089DCE0AEA
:100D00002D145D194B056705E10A2C050D1908998D
:100D10003E43C9076940002B08D0934006D3002208
:100D2000761C5141002B01D1760876001C4A002D1B
:100D300043DB154241D0AA433FD030460BB0F0BD53
:100D400006180D464D41174C7642AC411AD3951802
:100D50001C465C41134A6D42A24113D30122520545
:100D60004C00D4420AD15C00D4420BD04B4002D597
:100D700092021143E2E749004908DFE75940C90FF1
:100D8000C90718E000200849D8E7054801420DD1FD
:100D90000342F7D0F2E700000000FF07A93D000082
:100DA0000000F07F0000E0FF0000F87F114859408C
:100DB0000143C01241400020C0E70123089A9B066E
:100DC0009A4205DC032252078918C90FC907B5E703
:100DD000052252078918074A1143D2125140ADE744
:100DE00070B515461C4602460B4628462146FFF7BD
:100DF000DFFD70BDFFFFFF7F1F22030C02D10F221A
:100E0000000402D0030E03D004E000200146704726
:100E10000002083A030F01D10001121F830F01D114
:100E20008000921E002801DB4000521E120551185E
:100E30004205C012411810467047C10FC90700D0C3
:100E40004042012292071143D6E701218907D3E7E7
:100E50000121C9050123411842001B06D3185B0E6E
:100E60000AD0C1100722D206891840075242D14247
:100E700001D5520089187047090208D50146002A99
:100E800003D0C10FC90700207047104670474202C7
:100E900002D0002002497047072109050143F4E709
:100EA0000000F87FF0B5FF252D04C609C209FF2711
:100EB00004462E400137CB093E4348402A402B4090
:100EC0000746002A6BD0002B69D0AA4267D0AB42FC
:100ED00065D0002800DA32460125ED0529432C4370
:100EE00009022002090AD21A4B0C7F24E31A434C50
:100EF000000A7C44E35C7D242404121914145B0072
:100F0000A218884201D3521C00E0400049420C461E
:100F10005C4324115C43DB016415E318040A5C4361
:100F2000C502200D0C4644436419250A5D43230382
:100F3000EC0C0D46654300030019EB184C42A3422C
:100F400001D35B18401CD4052018002B07D05B0090
:100F5000C91804D3401C002901D1400840003F219A
:100F600089048A4209D3002A08DC1106090F04D03B
:100F7000032149074018C00FC007F0BD01224100FE
:100F8000120689187F2252069142F6D2052149079E
:100F9000C84201D59010F0BDFF20C005F0BD002F64
:100FA00000DA32461648AA4207D2AB4205D21902ED
:100FB000090E17D0F80FC007F0BDFF2563002D06FE
:100FC000AB42F9D84900A942F6D8AB4201D1A942B7
:100FD000F2D0A94201D1002101E061004908D00509
:100FE0000843F0BD1102090EFBD0FF200243D005DB
:100FF000F0BD0A460146104654E700004F39000094
:101000000000C07F1F22030C02D10F2200041CD05D
:10101000030E01D10002083A030F01D10001121F93
:10102000830F01D18000921E002801DB4000521E78
:10103000D2055118021251181922904004D3491CAC
:10104000002801D14908490008467047C10FC90767
:1010500000D04042012292071143D3E701218907C2
:10106000D0E7FFB504460D4681B0243000902168DA
:10107000880604D51022E0699143216000E0012038
:10108000A84201DD471B00E000270498A1697A19F6
:101090001018081AA0612078C00602D42046FFF775
:1010A000BDF8002608E003986268A168805D90475B
:1010B000206A401C761C206204988642F3DB20786C
:1010C000C0060AD52046FFF7A9F806E06268A168C5
:1010D00030209047206A401C206238467F1E00283E
:1010E000F4DC07E000986268A168405D9047206AE0
:1010F000401C206228466D1E0028F3DC2046FFF7C6
:10110000A3F82078000602D5022005B0F0BD01202A
:10111000FBE700007047FFB50C461E468FB003CAC0
:10112000089009914F007D0D00D16D1E00210846E9
:101130000020C0460321099A89050840002A03DAE5
:101140008200801840080840800D01280A9002DDC6
:101150000020C0430A90089807430DD0F048F14999
:10116000281848430714189800281DD07542291ED6
:101170001DDD0A9842421BE01898012802D0002089
:10118000302104E00020F24305E02154401CB0422D
:10119000FBDB30460022189B002121540F998B6005
:1011A0000A60486013B0F0BDBD1B6D1CDFE70A9AF2
:1011B000002900DA69420BA800F070FA0BAB07CBEC
:1011C00003AB07C30899099800F0D4FA6B4607C32C
:1011D0000146D5480918002D00910BDDD24903982E
:1011E0000A9A49424018002303A90390684600F078
:1011F00031FD08E003990A9A0023081803A9039017
:10120000684600F0D1FC6B4607C30004000C03D015
:101210000020C043410800E01046189A002A03D07D
:101220000022009215461EE0751E05D400F0B4F9A8
:10123000303262556D1EF9D501220843079602D05F
:1012400000227F1C04E02078302801D100227F1E7C
:10125000002A069787D01EE0112D07DA00F09CF9CE
:10126000303262556D1C02460A43F5D1084303D063
:101270000098002819D00EE00021681E05E0235CCC
:10128000625C63542254401E491C8142F7DBA81B58
:10129000401E07950690079A18990020A0540F98B1
:1012A000079B069A81600CC07CE7112600201890ED
:1012B00059E7D21DF0B50D460446D10893B0C900D8
:1012C00003C90C900D9101F0FDFF02460D98C00F6F
:1012D00001D02D2007E02068810701D52B2002E0F6
:1012E0004007C00F4001032A0F9001D0072A05DBF9
:1012F00003462946204600F08DF90EE1207880064D
:1013000001D5E76900E006272846652D04D0662848
:1013100014D0672D69D12DE00020112F009001DB42
:10132000112300E07B1C0CAA03A910A8FFF7F3FE11
:101330001199002610987D1C0E9142E001203B4639
:101340000CAAC0070B900120009003A910A8FFF77A
:10135000E2FE119D12981099002600280E9501D1E9
:10136000781C0D18781B02D446427D1C761EE81BA3
:1013700000903AE0012F00DA01270020112F0090A1
:1013800001DD112300E03B460CAA03A910A8FFF7DA
:10139000C2FE11993D46109800260E91217809074A
:1013A0000BD40E99A94200DA0D4603A9012D04DDE4
:1013B0004A19203AD27F302A06D0B84201DA011DFC
:1013C00004DA012100910FE06D1EEFE7002802DC36
:1013D00086192D1A03E0411CA94200DD0D46801B31
:1013E000401C00900120C0070B902078000705D416
:1013F0000098A84202DB0020C0430090694600200C
:10140000C8720B98012102AF0337C907884225D063
:10141000022010902B2011900B9800280BDA4042EC
:101420000B902D20119006E00B9800F09CF83031C5
:101430007F1E0B9039701099481E00291090F3DC24
:101440000B980028F0D111987F1E38702088000575
:1014500001D5452000E065207F1E387001A8C01B23
:10146000C01D0B900F98002800D001204119009852
:10147000C01709180B980818A169081A401EA06126
:101480002078C00602D42046FEF7C8FE0F98002838
:1014900005D06268A1689047206A401C20622078CD
:1014A000C00625D52046FEF7B9FE21E0002E07DB59
:1014B0000E98B04204DD03A86268805DA16802E076
:1014C0006268A16830209047206A761C401C206228
:1014D0000098401E002800900AD100F059F8C0681A
:1014E00062680168405CA1689047206A401C2062E5
:1014F00028466D1E0028D9DC07E062683878A168AC
:101500007F1C9047206A401C20620B99481E0029CE
:101510000B90F2DC2046FEF797FE032042E6000027
:1015200001FCFFFF104D0000E1DFFFFF01694A1CD5
:1015300002610878704700B58FB0029100210591D3
:101540000549019379440391114604906846FEF7DA
:10155000C3FE0FB000BD0000E5FFFFFF0A6810707A
:10156000521C0A60704701468008081A02091018C8
:10157000020A1018020C1018C0088200121852003B
:10158000891A01E0401C0A390A29FBD27047000081
:10159000004870470C0700200B4670B502468907CB
:1015A0008008084319469D08141AA941250908070F
:1015B000054308092C194841250A01060D43010A73
:1015C0002C194141200C0D0428430D0C00194D41EC
:1015D000002140194D41C00869070843E908840FFC
:1015E0008D002543840024184D4124196D41121BA0
:1015F000AB4107E00925ED432C115219634100244A
:10160000401C61411C460A250026551BB441F1D2FD
:1016100070BD0000F8B51F46044601230068DB02D8
:10162000032601461840072A05DB002801D017A52C
:1016300006E017A504E0002801D016A500E016A5D5
:10164000102081432160A069C01E002FA06101D03D
:10165000401EA0612046FEF7E1FD002F09D038466C
:101660006268A1689047206A401C2062C01C20620A
:1016700006E0206AFAE762682878A1686D1C904746
:10168000761EF8D22046FEF7DFFDF8BD4E414E0033
:101690006E616E00494E4600696E6600F7B51646EB
:1016A0008AB0334878446C4603467C33C06F5A682E
:1016B0009B680DC42E487844763003AC0DC80DC429
:1016C0003720C001081837211B30FEF70CFF0546F4
:1016D0000C46803D1B3C02D56442012000E0002006
:1016E0000027099010E0E0070CD00C202049784337
:1016F000794432464C3941186846012300F054FAC7
:101700006B4607C364107F1C002CECD1184F7F443C
:101710002E3F16E0E80712D02001C0190EC806912E
:10172000089307920068F04201D198190890324658
:10173000012306A903A800F037FA03AB07C36D1015
:10174000641C002DE6D10998002806D0324669466F
:10175000012303A800F07EFA05E001233246694622
:1017600003A800F021FA0A9B07C30DB0F0BD0000EA
:10177000E0310000034640000A4610B5400D0BD092
:101780000121C9070F24A40200191C036408214386
:10179000540D2143D20207E000210120F2E7D40FCB
:1017A000490021435200401E0029F8DADB0FDB0715
:1017B000184310BDFFB50D46144685B04868516802
:1017C00001F067FD00910190A868A16801F061FD3A
:1017D00002910390A868616801F05BFD029A1218FB
:1017E0008242029201D2012000E00020019A0B18EF
:1017F000D2180028019202D08A4202D903E08A421C
:1018000001D2012000E000200099081800906868CB
:10181000A16801F03EFD029A12188242029201D2A2
:10182000012000E00020019A0B18D2180028019234
:1018300002D08A4202D903E08A4201D2012000E0AC
:10184000002000990818009028682168400049008D
:10185000400849084018FA49471814E00199400027
:10186000C90F08430090019802994000C90F08432E
:101870000190029803994000C90F08430290039811
:1018800040007F1E039000980028E7DA089800289F
:1018900001D0EC4E00E00026B74201DA012000E062
:1018A0000020002804902AD0F71BF806C00E15D09F
:1018B000029B2021091A039A8B401A430392029A31
:1018C000019BC2408B401A430292019A009BC24086
:1018D0008B4000991A430192C14000917B110DD0B9
:1018E0006F460320C11A03D500218200B95003E0DE
:1018F0008A008100BA587A50401EF3D537460398C3
:101900000299002800D00120014308980291002884
:1019100008460CD0002800D001200199019A490501
:1019200008430121D20AC902D202019200E001213A
:101930000E9B0122D207012B02D0002B03D013E013
:10194000002807D120E0904204D890420CD1019B9E
:101950000B4209D0019B5918019105D10099491CEE
:10196000009101D17F1C009200280DD01021084663
:101970000020C0460498002806D00F98002803D005
:10198000082108460020C04628682168019B009A6B
:101990004840C10F0598C90739430EC009B0F0BDD2
:1019A000FFB587B0099A089808995368926840680B
:1019B000896896460022039317469446089A12684F
:1019C0005300099A5B081268520052089A1A9E4BFB
:1019D000D4180A9A002A01D0352200E0402206924B
:1019E0000022012315460492DB07059324E0002D15
:1019F00005D175460346039E4D1BB34109D3754679
:101A00006646039B491B049D9841059B7519AC468E
:101A10005F4163463B4308D0059B049EDD07760883
:101A20002E435B080496059301E0521E641EC50F09
:101A3000ED0749184041521C069B9A42D7DB002D06
:101A400004D17546039A6B1A824101D203200CE03F
:101A5000039A0B466B404240134303D0014303D02B
:101A6000012002E0022000E00020614601910021F7
:101A7000009702910A99002905D06146400201436E
:101A8000704B019102E08007002302909C4201DA32
:101A9000012000E0002007003AD01A1BD006C00E3B
:101AA00015D0029D2021019C091AC5408C40254378
:101AB000029C8C4000D001242543019C0295009D8E
:101AC000C4408D4000992C430194C14000915411B1
:101AD0001DD06D460221002202290CD10320001BDB
:101AE00007E0002804DB8600AE59002E00D001225A
:101AF000401C0328F5DB081B02D588002A5004E0AF
:101B00008000285810438A00A850491EE3D51C467F
:101B10000A98002802980CD0002800D001200199D2
:101B2000019A490508430121D20AC902D202019251
:101B300000E00121109B0122D207012B02D0002BD3
:101B400003D013E0002807D11FE0904204D8904250
:101B50000CD1019B0B4209D0019B5918019105D171
:101B60000099491C009101D1641C009200280CD0FE
:101B7000102108460020C046002F06D011980028EA
:101B800003D0082108460020C04608980999019A08
:101B9000009B006809684840C10F0798C9072143A6
:101BA00082600AC00BB0F0BD00B585B00193009211
:101BB0000A460146002302A8FFF7FCFD02A807C859
:101BC00005B000BDFFB50A461F4685B007990193D1
:101BD00001230091014602A8FFF7ECFD029903984A
:101BE000049ECA0F4900D20700920F2249089202B0
:101BF0008C1A0021002800DB0C46450013486D08B4
:101C0000844214D3079A002A04DA441E0026104D99
:101C1000F64302E004460D460E4610210846002019
:101C2000C046002F03D0042108460020C0462005EE
:101C3000E90A0843009908436905F20A1143ADE631
:101C400002C0FFFF013C0000FF3F0000FF07000053
:101C5000FFFFFF7F00B585B0019300920A46014661
:101C6000002302A8FFF79CFE02A807C8A8E7FFB55B
:101C70000A461F4685B0079901930123009101464A
:101C800002A8FFF78DFE02990398049ECA0F49002F
:101C9000D20700920F22490892028C1A00210028D4
:101CA00000DB0C46450011486D08844214D3079AA6
:101CB000002A04DA441E00260D4DF64302E00446D5
:101CC0000D460E46102108460020C046002F03D0C6
:101CD000042108460020C0462005E90A084300996F
:101CE00008436905F20A114358E60000FF070000A7
:101CF000FFFFFF7F00487047EC0600207546FFF7A6
:101D0000F9FFAE46050069465346C008C000854647
:101D100018B020B5FEF75AFA60BC00274908B6464D
:101D20000026C0C5C0C5C0C5C0C5C0C5C0C5C0C5EA
:101D3000C0C5403D49008D46704710B50446C046B9
:101D4000C0462046FEF716FA10BD0000024670B5E8
:101D50000A4392072AD11E4DEE0104C808C9541B3C
:101D60009443344017D0D0B2D9B2401A210601436F
:101D700010D190B299B2401A210401430AD1100245
:101D80001902000A090A401A2102014302D1100E69
:101D9000190E401A70BD9A42DFD010BA19BA8842A3
:101DA00001D9012070BD0020C04370BD02780B78BE
:101DB000401C491C002A09D09A4207D102780B78AE
:101DC000401C491C002A01D09A42EFD0D01A70BDA5
:101DD0000101010101491820ABBEFEE72600020007
:101DE0007047000070B50D4A00240D4D0EE0035DF4
:101DF0005A400023D60702D052086A4000E0520839
:101E00005B1CDBB2082BF5D3641CE4B28C42EED32E
:101E1000100A1102401880B270BD0000FFFF0000E0
:101E200001A00000F8B5294E7069C0044CD5092006
:101E3000C00600690127C1040024254800293CDAB6
:101E40008487418F1922034652011D8E91420FD281
:101E5000002D06D020211F4800F088FF1C48048672
:101E60002DE021211B4800F081FF1948078626E05C
:101E700019490C604487C480048144818481C481F1
:101E8000048244824461C483848384610484134C47
:101E9000A06947081C212046FEF719FB207EC007D9
:101EA000C00F7900084340084000E907C90F084304
:101EB000A061204601F036FE01E087874487706903
:101EC0000121090308437061F8BD000000040140CE
:101ED000600600200800002018000020A006002056
:101EE00010B5402000F01EF80149888010BD0000A8
:101EF0006006002010B5402000F01EF80649484357
:101F00000649FEF7E6FA064C20607D21C900FEF77F
:101F1000E0FA6084A18410BD102700003D08000095
:101F20006006002010B501460422024800F018FDAA
:101F300010BD00001000002010B50146022202482A
:101F400000F00EFD10BD00001000002070B5254807
:101F5000C169012464052143C1610920C0060268EA
:101F6000032189048A43A310D218026003688A00FF
:101F700093431B190360436AF024A3434033436235
:101F8000436A24010125A343AD025B194362436800
:101F90006E103343436043682B43436083680B43B5
:101FA0008360836813438360C3688B432902591895
:101FB000C160C1689143AA028918C1600A4800F053
:101FC0005DFD0A2001F0F4F9084B0022402106488B
:101FD00000F012FD234605224021034800F00CFDCD
:101FE00070BD0000001002401000002027470000D4
:101FF0000448034941610021816107210161704763
:10200000FF083D0000E000E0024901480860704719
:10201000AAAA000000300040054A044B136050603B
:1020200091605800106003481060704755550000DB
:1020300000300040CCCC000070B50920C00602681A
:1020400030218A4310320260426804239A4342607E
:1020500082680A438260C2688A431032C2600268A2
:10206000C0218A434032026042680824A243426091
:1020700082680A438260C2688A434032C260026852
:1020800089008A43FF320132026043681022934381
:10209000436083680B438360C3688B43FF33013322
:1020A000C3602A490B689B089B005B1C0B604B6854
:1020B0005B085B004B608B6803252B438B60CB6810
:1020C000AB435B1CCB608B6901252B438B61816922
:1020D0002143816181691143816102680321890281
:1020E0008A432302D218026042682025AA43426034
:1020F00082680A438260026A0F231B059A430262C8
:1021000003680A01934324031B1903604468802376
:102110009C434460846814438460046A2401240955
:102120000462C4688C43D9006118C160C1689143DE
:10213000DA018918C1608169294381618169194384
:102140008161034800F00AFD70BD000000040048F2
:1021500008000020F0B595B0FFF7CCFE402105A89F
:10216000FEF7B5F9ED4CEEA1628C05A8FEF740F83C
:10217000C0B2A28DE38D302100270193029203911A
:102180000090049705AB06220C21E64800F082FC83
:10219000A08D3021E28D02AB83C30120019200901B
:1021A000E1A306225421DF4800F074FC402105A879
:1021B000FEF78DF9A28CDDA105A8FEF719F8C0B2D3
:1021C000A28DE38D30210193029203910090049738
:1021D00005AB06226C21D34800F05CFCA08D3021B9
:1021E000E28D02AB83C3012001920090D1A30622AD
:1021F000C021CC4800F04EFCFFF772FE402105A83C
:10220000FEF765F90420205EFEF717FE0022CA4B98
:10221000FEF7CEFB02460B46C8A105A8FDF7E8FF76
:10222000C0B2A28DE38D3021019302920391009000
:10223000049705AB36220C21BA4800F02BFCA18D87
:10224000E28D3020039001200192029100900497CA
:10225000BCA33622C021B34800F01CFC402105A8D5
:10226000FEF735F92089FEF7F0FD0022B24BFEF7AC
:102270009FFB05460E46E088FEF7E7FD2A463346FB
:10228000FEF766FB02460B46AFA105A8FDF7B0FFBF
:10229000C0B26946CF76A18D3022E38D02AD86C5EE
:1022A0000193009005AB66220C219E4800F0F2FBE2
:1022B000A08D3021E28D02AB83C3022001920090F9
:1022C000A3A36622C021974800F0E4FB402105A8A3
:1022D000FEF7FDF80E20205EFEF7AFFD0022964BC4
:1022E000FEF766FB05460C200E46205EFEF7A5FDB8
:1022F0002A463346FEF72CFB02460B4692A105A860
:10230000FDF776FFC0B26946CF76A18D3022E38D0E
:1023100002AD86C50193009005AB96220C21814841
:1023200000F0B8FBA08D3021E28D02AB83C3022008
:102330000192009086A39622C0217A4800F0AAFB61
:10234000E08DC6210A4600910190F02300217548D6
:1023500000F025FDE08DF821782300910190C62240
:102360001946704800F01BFD402105A8FEF7AFF8A4
:102370000420205EFEF76AFE06462068FEF76EFE29
:10238000744D2946FEF78EFD314601F009FC2946C1
:10239000FEF788FD40004008FEF75AFD02460B4656
:1023A0006DA105A8FDF724FFC0B2A18D1022E38D19
:1023B00002AD86C50193009005ABCB22032159489D
:1023C00000F068FBA08D1021E28D02AB83C30120D9
:1023D0000192009062A3CB226021524800F05AFB88
:1023E00060480568A5623C212846FEF772F80E4653
:1023F000E12109012846FEF76CF8054608463C2114
:10240000FEF767F803462A4657A105A80096FDF790
:10241000EFFEC0B2A28DE38D1021019302920391D1
:102420000090049705ABDD2203213E4800F032FB0B
:10243000402105A8FEF74BF86069FEF706FD002273
:102440004D4BFEF7B5FA05460E46608AFEF7FDFCD9
:102450002A463346FEF77CFA02460B463EA105A803
:10246000FDF7C6FEC0B26946CF77A18D1022E38D7D
:1024700002AD86C50193009005ABCB227B21294894
:1024800000F008FBA18DE28D102003900220019244
:1024900002910090049739A3CB22D821214800F063
:1024A000F9FA402105A8FEF712F8A069FEF7C5FC6D
:1024B0000022314BFEF77CFA05461C200E46205EBA
:1024C000FEF7BBFC2A463346FEF742FA02460B46AD
:1024D00021A105A8FDF78CFEC0B26946CF77A18D7A
:1024E0001022E38D02AD86C50193009005ABDD227D
:1024F0007B210C4800F0CEFAA18DE28D10200390D4
:10250000022001920291009004971CA3DD22D821A1
:10251000044800F0BFFA15B0F0BD000060060020CE
:1025200025336400080000202E00000025303364AD
:10253000000000005600000000408F4025372E3379
:10254000660000004100000025372E3266000000C2
:102550004168000000007A442531312E32660000C7
:1025600057000000180000202535643A25303264F9
:102570003A2530326400000080842E415768000004
:102580000349CA6A02600A6B4260496B8160704706
:1025900080F7FF1F04220549042803D008699043EF
:1025A00008617047086910430861704700E000E067
:1025B00001480121817470478006002010B516483B
:1025C000016801221143016001688907FCD5416857
:1025D0000323DB039943416041680F239B04994324
:1025E00001235B05C91841600168DB0019430160E4
:1025F00001688901FCD5094B1968114319604168CC
:1026000089088900891C416041680907890F0229EE
:10261000FAD100F005F810BD001002400020024081
:1026200070B5194E71680C2001401848184C0029EB
:102630000DD004290DD008290DD0206070681549EF
:102640000006000F085C2168C140216070BD206059
:10265000F4E72060F2E771680F229204114072687B
:1026600001231B041A408D0CAD1CF16A0907090FE8
:10267000491C9A4204D1FDF72CFF68432060DDE736
:10268000054845432560D9E70010024000127A0052
:1026900000000020603C000800093D00134801686C
:1026A0000122114301604168114A114041600168F3
:1026B000104A1140016001680122920491430160B7
:1026C00041683F22120491434160C16A090909012E
:1026D000C162016BFF22143291430163416B4908CF
:1026E00049004163002181607047000000100240F2
:1026F0000CB8FF08FFFFF6FE012080070169C9073B
:1027000009D0054A1168491C116004490122CA74A4
:102710000169914301617047180000208006002084
:1027200010B50B48C26901210A43C261094A8004FD
:102730008262094AC262C2680A43C26002680A43EE
:1027400002600F2000F062F80F2000F053F810BD77
:10275000001002403F9C0000E703000010B5024853
:1027600000F0AEFC10BD00002000002000B587B0D6
:102770001C48816901229203114381611A48016852
:102780000322120391430122520389180160016A56
:102790000F221206914301620168032292039143C2
:1027A000420189180160016A0901090901620F48A3
:1027B0008069400805906946488B80088000302178
:1027C00088430C21884369464883094800F09AFCF5
:1027D00001211B2000F01AF81B2000F00BF807B0B5
:1027E00000BD00000010024000040048A0060020C8
:1027F00020000020002805DBC106C90E012088400A
:10280000014908607047000000E100E08307FF22F3
:10281000DB0E9A408907090E9940002808DB8308DF
:1028200009489B001818036893430B4303607047E3
:102830000007000F0838830804489B001818C36974
:1028400093430B43C361704700E400E000ED00E0F8
:10285000401E411CFCD1704710B503460C4618467B
:1028600000F06CF8186801690222114301611868D0
:10287000446118680169402421430161196800BF5F
:10288000C868C007FBD1C868800603D5C868202483
:102890002043C8601868016991430161184600F03F
:1028A00042F8012010BDF0B506460C461546012041
:1028B000800230184168491C4160304600F03EF803
:1028C00000205A081AE031680B6901273B430B616D
:1028D0002988AD1C2180A41C3368D968C907FCD1A4
:1028E000D968890611D5D96820273943D96031685C
:1028F0000B695B085B000B61401C80B28242E2D82E
:10290000304600F010F80120F0BD0020F0BD10B5F9
:10291000002005E00C78491C1470521C401C80B249
:102920009842F7D310BD006800BFC168C907FBD14A
:10293000016980221143016170470000016800BFF6
:10294000CA68D207FBD10A69120604D5024A4A6056
:10295000006802494160704723016745AB89EFCDAC
:1029600030B523484B00012149035C1821494C60D4
:102970004C6801252D042C434C6002E0401E441C91
:1029800004D08C69A407F9D58A6204E0002030BD28
:10299000401E421C0CD08A695206F9D509229202C7
:1029A0009A184A604A6801235B041A434A6004E0AB
:1029B000002030BD401E421C06D08A695207F9D55E
:1029C0004A6A1206130C04E0002030BD401E421C6F
:1029D0000BD08A695207F9D5486A184380B24A6811
:1029E00001239B031A434A6030BD002030BD000024
:1029F000102700000054004030B51E480124490053
:102A000064030C191C494C604C6803252D042C43AD
:102A10004C6002E0401E441C04D08C69A407F9D528
:102A20008A6204E0002030BD401E421C05D08A6945
:102A30009207F9D51A0A8A6204E0002030BD401ED0
:102A4000421C05D08A699207F9D5DAB28A6204E09D
:102A5000002030BD401E421C09D08A695206F9D5BB
:102A600048680122920310434860012030BD0020D5
:102A700030BD000010270000005400400448034906
:102A80000161016801221143016070475B3D300024
:102A900000540040FFB585B0119F0E9C0E461D46A8
:102AA0007808049011E00F99109A12986B4686C32B
:102AB00003902B783146079A059800F0C5F90498E1
:102AC000801986B26D1C641EE4B2002CEBD109B0F3
:102AD000F0BDF8B505460F4614461E462A21284685
:102AE00000F044F95037B9B2284600F04CF950369E
:102AF000B1B2284600F047F92B21284600F036F9FC
:102B00002146284600F03FF92846069900F03BF997
:102B10002C21284600F02AF9F8BDFFB581B00A9FA4
:102B200015461E46781E80B20090701E83B22A465B
:102B300002990198FFF7CDFF0BE0029C05E00B998D
:102B4000019800F020F9641CA4B2B442F7D36D1CC4
:102B5000ADB2BD42F1D305B0F0BD000070B5054681
:102B60000021286800F05EFA7F4CA06A01263043FD
:102B7000A0620A2000F01CFCA0693043A0610A207A
:102B800000F016FC0920C006816A0422114381620C
:102B90000A2000F00DFC1121284600F0E7F80C2077
:102BA00000F006FC3621284600F0E0F8A021284677
:102BB00000F016FA3A21284600F0D8F805212846F8
:102BC00000F00EFAB221284600F0D0F80C21284679
:102BD00000F006FA0C21284600F002FA00212846EF
:102BE00000F0FEF93321284600F0FAF93321284697
:102BF00000F0F6F9B721284600F0B8F8352128464C
:102C000000F0EEF9BB21284600F0B0F8322128464A
:102C100000F0E6F9C221284600F0A8F80121284674
:102C200000F0DEF9C321284600F0A0F8152128465F
:102C300000F0D6F9C421284600F098F82021284653
:102C400000F0CEF9C621284600F090F80F21284662
:102C500000F0C6F9D021284600F088F8A4212846C3
:102C600000F0BEF9A121284600F0BAF9E02128467B
:102C700000F07CF8D021284600F0B2F9082128465F
:102C800000F0AEF90E21284600F0AAF909212846E5
:102C900000F0A6F90921284600F0A2F905212846EE
:102CA00000F09EF93121284600F09AF93321284698
:102CB00000F096F94821284600F092F9172128469D
:102CC00000F08EF91421284600F08AF915212846D3
:102CD00000F086F93121284600F082F93421284697
:102CE00000F07EF9E121284600F040F8D021284686
:102CF00000F076F90821284600F072F90E212846E6
:102D000000F06EF90921284600F06AF909212846E9
:102D100000F066F91521284600F062F931212846B5
:102D200000F05EF93321284600F05AF94821284680
:102D300000F056F91721284600F052F914212846D0
:102D400000F04EF91521284600F04AF931212846B5
:102D500000F046F93421284600F042F921212846A6
:102D600000F004F870BD00000004004870B50924AC
:102D7000E406A26A08252A43A26200F042F9A0698B
:102D80002843A06170BD70B505460C46210A28464F
:102D900000F037F9E1B2284600F033F970BDFFB515
:102DA00087B01098002500265F1A801A04900191C0
:102DB0000092681E002F02DD0121039103E0002F25
:102DC00007D003907F420499002905DD012002907D
:102DD00009E000210391F6E70499002908D0029048
:102DE0000498404204900498874204DD3C4603E086
:102DF00000200290F7E7049C00200590601C0690DC
:102E00001CE00098119B82B2019881B2079800F0F3
:102E1000EBF8ED1904983618A54204DD2D1B039933
:102E2000019840180190A64204DD361B02990098D3
:102E3000401800900598401C80B2059006990598AE
:102E40008842DEDB0BB0F0BDFFB587B00E461C46F6
:102E50000020049002961298400805900598C10839
:102E6000400701D0012000E00020081812994843D3
:102E70000390362C3AD014DC312C2DD008DC202CD9
:102E800022D02D2C22D02E2C22D0302C3FD121E04C
:102E9000322C23D0332C23D0342C23D0352C36D1D4
:102EA00022E0412C2CD008DC372C21D0382C21D02A
:102EB000392C21D03A2C2AD120E0562C22D0572C64
:102EC00022D0682C23D121E0002420E001241EE040
:102ED00002241CE003241AE0042418E0052416E070
:102EE000062414E0072412E0082410E009240EE070
:102EF0000A240CE00B240AE00C2408E00D2406E070
:102F00000E2404E00F2402E0102400E011241299A2
:102F10000998099A4018401E80B2009005983146E1
:102F20003018401E83B20798FFF7D3FD00274BE00F
:102F30001298102824D01298302848D19020264981
:102F400060434018C05D06900025139800281DD0EE
:102F500001200699A840084205D03146109B099AE5
:102F6000079800F041F8761CB6B20298311A05981D
:102F7000814223D1029E0998401C80B2099021E031
:102F8000164920014018C05D0690DDE70120069932
:102F9000A840084204D010990798FFF7F4FE03E018
:102FA00011990798FFF7EFFE0498401CC0B20490F7
:102FB00005990498FDF78DFA00290AD06D1CEDB231
:102FC000082DC2D37F1CBFB203988742B0D30BB089
:102FD000F0BD00200490F5E7943D0008743C000823
:102FE00010B500F00EF810BD38B505461C460B466E
:102FF00028460092FFF76DFD21462846FFF7C3FEE5
:1030000038BD70B50924E406A26A10252A43A262DD
:10301000006800F04DF80120FFF71AFCA069284372
:10302000A06170BD10B501680B68402293430B602E
:1030300001680B681401A3430B6001680B6854021C
:1030400023430B6001680B68140223430B60016883
:103050000B68042423430B6001684B680F2424028F
:10306000A343072424021B194B6001680B68022448
:1030700023430B6001680B68012423430B60016844
:103080000B68D40023430B6001680B689400234352
:103090000B6001680B683824A3430B6001680B6860
:1030A0008024A3430B60006801681143016010BDD8
:1030B000006882689207FCD5027B017370470000AC
:1030C00030B50F4BD9698A0601462031002A09DA4A
:1030D0000B4A203295880A7D541C1018FF300C755D
:1030E0002130C575D869C00609D5986908221043F2
:1030F000986101200873186A10210843186230BDD6
:103100000038014070B504461C222046FDF738F80F
:10311000E0690168490849000160E069016801222D
:1031200012039143A27ED207D20C11430160E069E1
:103130000168012212079143A27E9207D20F120763
:1031400011430160E06901680122D20291430160EC
:10315000A07E36490007364B800F0DD0E06902682B
:103160001A430260E0690268A57E8A432D07ED0FCD
:103170006D022A43026003E0E06902689A4302603C
:10318000E06902688025AA430260E0690268402580
:10319000AA430260E069026820252A430260E069D0
:1031A000026810252A430260E069026804252A4368
:1031B0000260E0690568082215430560E06945681A
:1031C00003263603B543A67EB606B60F360335434F
:1031D0004560E06945688D434560E06945681D4389
:1031E0004560E069836801252B438360E06983685B
:1031F00093438360E06982682B029A438260E069AE
:1032000082688A438260E0690168DA019143016063
:10321000E0694168114341602046616900F00AF8A5
:10322000E06901682943016070BD000000020000F0
:103230000004000010B5C46920680D4A0304126838
:1032400048088018002B09DA4900FDF742F9C10847
:103250004007400F09010143E16010BDFDF739F956
:1032600001090007000F09010143E16010BD0000E2
:103270000000002010B506E0C369DC692406FCD517
:103280000C78491C1C851346521E92B2002BF3D1B8
:1032900010BDF8B5040C8BB2264682B25E431046D0
:1032A00058430D0C370C360400218019164679411D
:1032B0006E43370C36048019264679416E438919CE
:1032C000F8BD00004900CA020243100000D00420EB
:1032D0004A0D01D001221043044A490D914201D107
:1032E00002210843012800D105207047FF07000094
:1032F00009480A490160001D011F01600848094989
:10330000C161094809490160034809490830016061
:103310000849001D01607047040000200030014092
:103320002000002000380140580200200020024008
:10333000002401400054004030380A2801D2012006
:10334000704700207047000070B50B4C6269402543
:103350002A436261094B01229A600022890803E036
:10336000960086591E60521C9142F9DC186861690A
:10337000A943616170BD00000010024000300240AE
:1033800010B50420C043FFF705F907480549006858
:10339000FDF79FF80549C0B208707D22D200504366
:1033A000488010BD00127A000000002014000020A8
:1033B0000B4902228A5E0B495043486100238B610E
:1033C00008690122104308610869C20701D0C003DF
:1033D000FAD508694008400008618B617047000019
:1033E0001400002000E000E0F0B589B00746104C62
:1033F0002546104E0EE0202301AA21460E48FFF775
:1034000086FA1C2101A8FFF79FFF0899884203D183
:1034100025462034B442EED320233A4629460648B6
:10342000FFF775FA05482035056009B0F0BD0000CA
:103430000060000800800008580200201C000020E6
:10344000002207E00378FF2B01D000207047401CCA
:10345000521C92B28A42F5D30120704788B0FF4CCB
:103460000020A062A085411EE18527462037F87420
:1034700038750125BD742087E086FFF79FF8F8486E
:1034800041696A041143416141695200114341613C
:103490008169821411438161416A29434162416A11
:1034A000C907FCD0EF48FFF79FFF1C21ED48FFF74D
:1034B000C7FF002818D0EC48EC4A0168914239D186
:1034C000EA49203901601C21E648FDF700F8E54A89
:1034D0004B21107E0902C007C00F40180021218631
:1034E00040084000906125E0DE48017EC907C90F11
:1034F00021860188E1804188218181886181C1889C
:10350000A1810189E18141892182818961820569E5
:1035100065610021E183C289A2834069A0612184A1
:10352000D34E3146FCF7DFFFE08631462846FCF7F4
:10353000D0FF2087CF480790FFF722F8FFF720FF42
:10354000FEF77AFDFEF702FDFFF7EAF8FFF70EF946
:10355000FEF74EFDC8490320FEF75EFDBF4CF0218B
:10356000A08D0B460022009101901146C348FFF741
:10357000D4FA2921C148FFF7F9FB208E002804D096
:103580002121BE48FFF7F2FB03E02021BB48FFF7F3
:10359000EDFBBB480690801E0590401C0490FE3851
:1035A0000446183C0546E8350390ACE2FEF7D2FD30
:1035B0000020B874F87C00286FD0A8480426865FE5
:1035C000002E6CDAA549304609684843E12109011B
:1035D000FCF789FFA14A92698218A0488261008C99
:1035E00008189E49088406E08A69521E8A61E12211
:1035F0001201801808842020085EE1221201D042C6
:10360000F2DD96489A498069FCF76DFF93493622AE
:103610008A5E811A491C12D1012139758F49C886E9
:103620000DE08E498D4A898B491E9183954940183A
:10363000114688618E49FCF756FF8849C88687493C
:10364000904A886952429042EBDD3046E1263601CD
:103650003146FCF748FF814AD28980187F4AD081E1
:103660001046008A081811460882734204E0CA898D
:10367000521ECA81801908821020085E9842F6DD29
:10368000814E734204E08A89521E8A81C018C88123
:103690000E20085EB042F6DD69E06AE0FFE7002E2A
:1036A00065DD6E49304609684843E1210901FCF7B0
:1036B00010FF6A4A5269821868484261C08B081834
:1036C0006649C883084604E04269521C4261C91A2F
:1036D000C183C18BE1231B019942F5D25F48644944
:1036E0004069FCF7F6FE5D4938228A5E811A01299D
:1036F00012D13975594908870EE05849574A498A05
:10370000491C51825F494942401811464861584955
:10371000FCF7DFFE5149088750495A4A48699042F0
:10372000EBD23046E12636013146FCF7DCFE4B4A4F
:1037300012898018494A108110464089081811469C
:1037400048813346084604E00289521C0281C91AA6
:10375000418141899942F7D27D23DB0004E0C28890
:10376000521CC280C91A018101899942F7D20020F6
:10377000F874387D002821D038493A484A690261F6
:103780008A69426182690B8E52085200DB07DB0FA7
:103790001A438261CA8802800A8942804A898280EB
:1037A0008A89C280CA8902810A8A42814A8A8281C0
:1037B000898BC18100F0B6F900203875207B002884
:1037C00066D0207D082804D1E97D0B2909D0002985
:1037D00007D0062804D9E97D0B297DD00029FCD02B
:1037E0008BE1287E032802D0112876D085E10621BE
:1037F0000698FEF7F7FA6A7F010A9142F0D1A97F95
:10380000C0B28842ECD1687EA97E00020843E97EFE
:103810002A7F090211430B222276032262764E0090
:10382000A67601229202821A02920B2A7ED80029E1
:103830007CD00A18154B521E9A4277DC0748016863
:103840000C482038016005480421415E09482038B1
:10385000416002487D21C088C9001AE0600600204E
:1038600000100240A00600201C000020206000087C
:10387000A0860100E0060020FF0F000008000020E5
:103880005701002040420F0018FCFFFF0B0400000E
:1038900037E148439E49098941189E4881609C4808
:1038A0000C21415E7D20C000414399480E22825E7A
:1038B00098488918C16096487D214069C900FCF785
:1038C00008FE93497D22498AD2005143411891480C
:1038D00001618F48806901E0D7E09AE01146FCF76A
:1038E00002FE8B491C228A5E7D21C9004A43811851
:1038F00088484161029880B2844600200DE0420869
:10390000614651184A0083498A5A8349130A0918A3
:103910002031CB760A77801C80B28642EFD8F01C2B
:10392000C1B20398FEF75EFA020A00E011E07A499C
:1039300071182031CA760877761DB2B2764803999D
:10394000FFF798FC00202072FF210398FCF7BFFDD1
:10395000D3E0022838D8002936D00A18521E022A8D
:1039600032DC01226B4912030A8300224A838A83D4
:10397000844600200EE04208614651184A0065491D
:1039800051180A8B6449130A09182031CB760A773B
:10399000801C80B28642EED8F01CC1B20398FEF7BC
:1039A00021FA5D49020A71182031CA760877761D1E
:1039B000B2B259480399FFF75DFC00202072FF2145
:1039C0000398FCF784FD98E00122920390421FD1F6
:1039D00002291DD1514880694008010AE17620770B
:1039E000010E6177000CA07707210398FEF7FAF922
:1039F000010AE17748494031087009224648039995
:103A0000FFF738FC00202072FF210398FCF75FFDD0
:103A100073E006210698FEF7E5F9217D059A030A71
:103A20008A5C934269D1C2B20498085C824264D134
:103A3000687E0102A87E0143E87E2A7F00021043CF
:103A400000295AD1062858D10B2020760320607611
:103A50000C20A07630480C223B300799FCF7D8FCAC
:103A60000F210398FEF7BEF92B49020A2C31CA76C2
:103A70000877112228480399FFF7FCFB00202072E9
:103A8000FF210398FCF723FD37E0297E102934D16C
:103A9000801EC1B20698FEF7A5F9217D059A030A9A
:103AA0008A5C934229D1C2B20498085C824224D134
:103AB000687E0102A87E0143E87E2A7F000210434F
:103AC00001229203914218D1022816D1E97FA87FE2
:103AD0000906084312496A7F097809041202114352
:103AE00008430E4940000A7ED207D20F02438A6182
:103AF000FEF73CFE094800F015F801202073002075
:103B00002075FEF781FAB87C002800D152E54DE51A
:103B100060060020C006002020000020A006002033
:103B20006001002070B504461C212046FFF70CFC04
:103B3000E06122460B4C20230B482168FEF7B3FEC0
:103B4000216820312160094E094D880505D1B14217
:103B500000D329460448FEF77FFE2068B04200D318
:103B6000256070BD1C000020580200200080000865
:103B70000060000810B500290AD00878002807D096
:103B800005487844FEF7E2F8002801D0002010BD77
:103B90000248784410BD0000BA0D0000B20D0000CC
:103BA00070B5420064414B005C41120E39D01B0ECF
:103BB00038D0FF2A3CD0FF2B3AD040024902400ABD
:103BC000490A060045184E43000A090AD21848431C
:103BD000ED017F3A0104731A4019190C4318990F2B
:103BE00004D001215B0849075B1A521CD80904D391
:103BF000401CF50301D19D0607D0FF2A08D2D50548
:103C000006D0E4072043401970BD0125A843F4E71E
:103C1000002A01DCE00770BD2402FF202043C0051C
:103C200070BD1B0EFF2A03D0FF2B01D0E00770BD33
:103C3000FF2645003606B54206D84D00B54203D8EA
:103C4000D218FF2A00D0E7E7004870BD0000C07F0F
:103C500003B402487844844603BC60475BD6FFFF48
:103C6000000000000000000001020304060708092C
:103C70000000000000000000000000000000000044
:103C800000000000000000000000003E00000000F6
:103C90000000000000000000000000000000000024
:103CA0000C0C0000000C12212121212121212121B5
:103CB000120C000000080E08080808080808080888
:103CC00008080000000C1221212010100804040232
:103CD000013F0000000C12212120100C1020212196
:103CE000120C0000001010181814141212113F10BA
:103CF00010100000003F0101010D132120202021A0
:103D0000120C0000000C122121010D132121212190
:103D1000120C0000003F20201010100808080404B6
:103D200004040000000C12212121120C1221212177
:103D3000120C0000000C1221212121322C20212103
:103D4000120C000000000000000C0C000000000C31
:103D50000C000000000808141414142222223E4112
:103D60004141000000414141222222221414140842
:103D70000808000000494949495555555522222255
:103D8000222200000001010101011D2341414141A6
:103D900041410000000000000000000000000000A1
:103DA0000000000000000000000000000000000013
:103DB0000000000000000000000000000000000003
:103DC00000000000000000000000000000000000F3
:103DD00000000000000000000000000000000000E3
:103DE00000000000000000000000000000000000D3
:103DF00000000000000000000000000000000000C3
:103E000000000000000000000000000000000000B2
:103E100000000000000000000000000000000000A2
:103E20000000000000000000000000000000000092
:103E30000000000000000000000000000000000082
:103E40000000000000000000000000000000000072
:103E500000000000000000000000FEFF0FFEFF0F4A
:103E6000FEFF0F0000000000000000000000000046
:103E70000000000000000000000000000000000042
:103E80000000000000000000000000000000000032
:103E90000000000000000000000000000000000022
:103EA0000000000000000000000000000000000012
:103EB0000000000000000000000000000000000002
:103EC00000000000000000000000000000000000F2
:103ED00000000000000000000000000000000000E2
:103EE00000000000000000000000000000000000D2
:103EF00000000000000000000000000000000000C2
:103F00000000000000000000000000000000F800B9
:103F100000F80000F80000F80000000000000000B9
:103F20000000000000000000000000000000000091
:103F30000000000000000000000000000000000081
:103F400000000000000000000000000000001F0052
:103F5000C07F00E0FF00F0FB01F8F001F8E003781B
:103F6000E0037CC0037CC0073CC0073C80073E8068
:103F7000073E80073E80073E80073E80073E800761
:103F80003E80073E80073E80073CC0073CC0077C60
:103F9000C0077CC00378E003F8E003F8F101F0FB10
:103FA00001E0FF00C07F00000F00000000000000E3
:103FB0000000000000000000000000000000000001
:103FC00000000000000000000000000000000000F1
:103FD00000000000000000000000000000001C00C5
:103FE000001C00001E00001F00E01F00F01F00F07A
:103FF0001F00001F00001F00001F00001F00001F07
:1040000000001F00001F00001F00001F00001F0015
:10401000001F00001F00001F00001F00001F000005
:104020001F00001F00001F00001F00001F00001FD6
:1040300000001F00001F00001F0000000000000023
:104040000000000000000000000000000000000070
:104050000000000000000000000000000000000060
:1040600000000000000000000000000000001F0031
:10407000C07F00E0FF00F0FB01F0E003F8E0037810
:10408000C00378C00378C00378C00300E00300E0F9
:104090000300E00100F00100F80000F800007C00DF
:1040A000003E00001F00801F00800F00C00700E0DE
:1040B0000300E00100F00100F800007800007C003F
:1040C00000FCFF07FCFF07FCFF07000000000000EA
:1040D00000000000000000000000000000000000E0
:1040E00000000000000000000000000000000000D0
:1040F00000000000000000000000000000001F00A1
:10410000C07F00E0FF00F0F101F8E00178E0037803
:10411000E0037CC0037CC00300C00300E00300E0B8
:104120000100F00100FC00003E00007E0000F800ED
:1041300000F00100E00300C00300C00700C0073C1E
:10414000C0073CC0077CC0037CE003F8F003F8F92B
:1041500001F0FF00E07F00001F00000000000000F1
:10416000000000000000000000000000000000004F
:10417000000000000000000000000000000000003F
:104180000000000000000000000000000000F0003F
:1041900000F80000F80000FC0000FC0000FE000039
:1041A000FF0000FF0080FF0080FF00C0FF00C0FB99
:1041B00000E0FB00E0F900F0F900F0F800F8F8008A
:1041C00078F8007CF8003CF8003EF800FEFF0FFE97
:1041D000FF0FFEFF0F00F80000F80000F80000F8E5
:1041E0000000F80000F80000F800000000000000E7
:1041F00000000000000000000000000000000000BF
:1042000000000000000000000000000000000000AE
:1042100000000000000000000000000000F0FF03AC
:10422000F0FF03F0FF03F000007800007800007852
:104230000000780000780000780000780000783FE7
:1042400000F8FF00F8FF01F8F101F8E00378C0037F
:1042500000C00300C00700C00700C00700C0073C43
:10426000C0073CC0037CE0037CE003F8F001F8F9F0
:1042700001F0FF00E03F00800F00000000000000A0
:10428000000000000000000000000000000000002E
:10429000000000000000000000000000000000001E
:1042A00000000000000000000000000000003E00D0
:1042B00080FF00C0FF01C0F703E0E303F0C103F09B
:1042C000C103F80000F80000F800007800007C3E10
:1042D00000FCFF00FCFF01FCF103FCE003FCC00359
:1042E0007CC0077CC0077CC0077CC00778C007780B
:1042F000C00778C007F8C003F0C003F0E103E0F3A3
:1043000001E0FF00807F00001E00000000000000B0
:10431000000000000000000000000000000000009D
:10432000000000000000000000000000000000008D
:1043300000000000000000000000000000FCFF037F
:10434000FCFF03FCFF0300C00300C00300E0030008
:10435000E00300E00100E00100F00100F00000F0E7
:104360000000F80000F800007800007800007C00F1
:10437000007C00003C00003C00003E00001E0000ED
:104380001E00001F00001F00000F00000F00800F24
:1043900000800F00800700C0070000000000000040
:1043A000000000000000000000000000000000000D
:1043B00000000000000000000000000000000000FD
:1043C00000000000000000000000000000001F00CE
:1043D000C07F00E0FF00F0F101F8E00178E0037831
:1043E000C00378C0037CC00378C00378C00378E0C2
:1043F00003F0E001F0F900C07F00C07F00F0FF0093
:10440000F8E00178E0037CC0033CC0073CC0073CF7
:10441000C0073CC0077CC0077CC003F8E003F8F18C
:1044200001F0FF01E07F00001F000000000000001D
:10443000000000000000000000000000000000007C
:10444000000000000000000000000000000000006C
:1044500000000000000000000000000000000F004D
:10446000C03F00E07F00F0F900F8F00178E0017C47
:10447000E0037CE0037CC0037CC0037CC0037CC001
:10448000077CC0077CE0077CE00778E007F8F007CE
:10449000F0F907F0FF07C0DF0300C30300E00300EB
:1044A000E00300E0037CE00178F001F8F800F0FDA3
:1044B00000F07F00E03F00800700000000000000E7
:1044C00000000000000000000000000000000000EC
:1044D00000000000000000000000000000000000DC
:1044E00000000000000000000000000000000000CC
:1044F00000000000000000000000000000000000BC
:104500001F00001F00001F00001F0000000000002F
:10451000000000000000000000000000000000009B
:10452000000000000000000000000000000000008B
:104530000000001F00001F00001F00001F000000FF
:10454000000000000000000000000000000000006B
:10455000000000000000000000000000000000005B
:10456000000000000000000000000000000000004B
:1045700000000000000000000000000000001F001C
:10458000001F00001F00001F00803F00803F0080D0
:104590003F00803F00C07F00C07F00C07B00C07B29
:1045A00000E0FB00E0FB00E0F100E0F100F0F101D1
:1045B000F0F101F0E001F8FF03F8FF03F8FF0378E2
:1045C000C0037CC0077CC0077CC0073C80073E80DE
:1045D0000F3E800F3E800F1E000F00000000000005
:1045E00000000000000000000000000000000000CB
:1045F00000000000000000000000000000000000BB
:10460000000000000000000000000000001E800FFD
:104610003E800F3E80073C80073CC0077CC0077C83
:10462000C00378C00378E003F8E003F8E001F8E0A5
:1046300001F0F001F0F001F0F100F0F100E0F10024
:10464000E0F900E0FB00E07B00C07B00C07F00C021
:104650007F00C03F00803F00803F00803F00801F00
:1046600000001F00001F00001F00000000000000ED
:10467000000000000000000000000000000000003A
:10468000000000000000000000000000000000002A
:10469000000000000000000000000000000F1F0FDD
:1046A0001F1F0F1E1F0F1E1F0F1E1F0F9E1F0F9E6F
:1046B0001F0F9E9F0F9EBF079EBF07BEBF07BCBFB9
:1046C00007BCBB07BCBB07FCBB07FCBB07FCFB076D
:1046D000FCFB03FCF903FCF903F8F103F8F103F820
:1046E000F103F8F103F8F103F8F103F8F001F8F041
:1046F00001F0E001F0E001F0E00100000000000046
:1047000000000000000000000000000000000000A9
:104710000000000000000000000000000000000099
:10472000000000000000000000000000003C00004D
:104730003C00003C00003C00003C00003C00003C11
:1047400000003C00003C00003C7C003CFF01BCFF42
:1047500003FCE303FCC103FCC0037C80077C8007EF
:104760003C80073C80073C80073C80073C80073C3E
:1047700080073C80073C80073C80073C80073C80EA
:10478000073C80073C80073C8007000000000000D9
:104790000000000000000000000000000000000019
:1047A0000000000000000000000000000000000009
:1047B00000000000040000080000000000000002EB
:1047C000000100001080807F7E7D7C7B7A79787785
:1047D0007676757473727171706F6E6E6D6C6C6BD2
:1047E0006A6A696868676666656464636362616172
:1047F00060605F5F5E5E5D5D5C5C5B5B5A5A5959F1
:10480000585857575656555555545453535252525B
:1048100051515050504F4F4F4E4E4D4D4D4C4C4CB2
:104820004B4B4B4A4A4A49494948484847474747FA
:104830004646464545454444444443434343424237
:1048400042424141418182838485868788898B8C5D
:104850008D8E8F919293959697999A9C9D9FA0A2E9
:10486000A3A5A7A8AAACAEB0B2B3B5B7B9BCBEC039
:10487000C2C5C7C9CCCED1D4D7D9DCDFE2E6E9ECDA
:10488000F0F3F7FAFE00000002400000000000A074
:104890000000000005400000000000C8000000000B
:1048A0000C4000000000409C000000001940000087
:1048B0000020BCBE0000000034400000BFC91B8EB9
:1048C00000000004B5400000504BCFD06607E2CF97
:1048D000010000006C4100003E8251AADFEEA734C7
:1048E00001000000D9420000DCB5A0E23A301F9779
:1048F000FFFFFFFFB4450000FD25A0C8E9A3C14F9D
:10490000FFFFFFFFFF3F00000000008000000000ED
:10491000FF3F000000000080000000005C4900082C
:104920000000002020000000F40000087C4900087E
:1049300020000020300D0000100100081C000000C5
:1049400043000000F8FFFFFF0C0000000E00000015
:104950000F0000002E00000099E9FFFF00127A000E
:104960000000000000000000000000000000000047
:0C497000000000000000000000600008D3
:04000005080000B13E
:00000001FF
